:020000040800F2
:10000000A8060020310200086D0200086F020008F7
:100010007102000873020008750200080000000069
:10002000000000000000000000000000770200084F
:1000300079020008000000007B020008211200087D
:100040007F0200087F0200087F0200087F0200088C
:100050007F0200087F0200087F0200087F0200087C
:100060007F0200087F0200087F0200087F0200086C
:100070007F0200087F0200087F0200087F0200085C
:100080007F0200087F0200087F0200087F0200084C
:100090007F0200087F0200087F0200087F0200083C
:1000A0007F0200087F0200087F0200087F0200082C
:1000B0007F0200087F0200087F0200087F0200081C
:1000C0007F0200087F0200087F0200087F0200080C
:1000D0007F0200087F0200087F0200087F020008FC
:1000E0007F0200087F0200087F0200087F020008EC
:1000F0007F0200087F0200087F0200087F020008DC
:100100007F0200087F0200087F0200087F020008CB
:100110007F0200087F0200087F0200087F020008BB
:100120007F0200087F0200087F0200087F020008AB
:100130007F0200087F0200087F0200087F0200089B
:100140007F0200087F0200087F0200087F0200088B
:100150007F0200087F0200087F0200087F0200087B
:100160007F0200087F0200087F0200087F0200086B
:100170007F0200087F0200087F02000800000000E4
:100180007F0200087F02000800F002F800F040F84B
:100190000AA090E8000C82448344AAF10107DA45E2
:1001A00001D100F035F8AFF2090EBAE80F0013F0F4
:1001B000010F18BFFB1A43F001031847101C000081
:1001C000301C0000103A24BF78C878C1FAD8520712
:1001D00024BF30C830C144BF04680C6070470000C1
:1001E0000023002400250026103A28BF78C1FBD840
:1001F000520728BF30C148BF0B6070471FB501F0E0
:10020000B0FD9DE8030000F0F1F81FBD10B510BD72
:1002100000F0EBF91146FFF7F1FF01F095FB00F05C
:1002200009FA03B4FFF7F2FF03BC00F039FA00004B
:1002300016481749174B99423CBF50F8042B41F818
:10024000042BF8D314494FF000028B4238BF43F817
:10025000042BFAD3DFF84400016841F47001016017
:10026000BFF34F8FBFF36F8F0D480047FEE7FEE7E8
:10027000FEE7FEE7FEE7FEE7FEE7FEE7FEE7FEE756
:1002800008480949094A0A4B70470000EC1D00085C
:100290000000002040000020A806002088ED00E0BB
:1002A00089010008A8000020A8060020A80200205C
:1002B000A802002070B5064600F07CF8056806F13B
:1002C0000B0020F00704B4429CBF002070BD2B46F9
:1002D0006A68BAB11068A04210D304F108018842DC
:1002E0003CBF5068586007D35168101941601168CD
:1002F000091B016058601460101D70BD13465268E0
:10030000002AE7D12146284600F05CF80028DED11B
:1003100070BD032A40F2308010F0030C00F015800D
:1003200011F8013BBCF1020F624498BF11F801CBF8
:1003300000F8013B38BF11F8013BA2F1040298BF5D
:1003400000F801CB38BF00F8013B11F0030300F0C7
:10035000AA80083AC0F0088051F8043B083A51F8E6
:1003600004CBA0E80810F5E7121D5CBF51F8043B70
:1003700040F8043BAFF30080D20724BF11F8013BE3
:1003800011F801CB48BF11F8012B24BF00F8013B45
:1003900000F801CB48BF00F8012B704702F0FF03C3
:1003A00043EA032242EA024200F0B1B870477047C4
:1003B00070470000004870474800002070477047B1
:1003C0007047704738B504460A4600206946AFF3C7
:1003D0000080002808BF38BD02460099204600F082
:1003E000BBF8012038BD012000F0D0B8F8B5AFF35C
:1003F0000080054600200C46102000BF0646A819C4
:10040000A0420DD9324669460020AFF300800700B4
:1004100008BF00F0BBF80098A04218BF0546C419F9
:10042000FFF7C8FF05600746F01D20F007004619DA
:10043000284600F00AF8B44208BFF8BDA21B3146B6
:100440003868BDE8F84000F087B800210160C0E9D5
:10045000011070471020704770B50446051FFFF764
:10046000A9FF0068002C14BF446870BD002C18BFA1
:10047000AC423CBF20466468F8D301680A18AA421F
:1004800018BF456003D12A680546114401602868F9
:100490004119A1421CBF6C6070BD61686960216830
:1004A0000844286070BD10B5203AC0F00B80B1E858
:1004B0001850A0E81850B1E81850A0E81850203A99
:1004C000BFF4F5AF5FEA027C24BFB1E81850A0E8A2
:1004D000185044BF18C918C0BDE810405FEA827CBC
:1004E00024BF51F8043B40F8043B08BF7047D207D3
:1004F00028BF31F8023B48BF11F8012B28BF20F874
:10050000023B48BF00F8012B70474FF0000204295E
:10051000C0F0128010F0030C00F04180CCF1040C0C
:10052000BCF1020F18BF00F8012BA8BF20F8022B66
:10053000A1EB0C0100F033B85FEAC17C24BF00F8E6
:10054000012B00F8012B48BF00F8012B7047000079
:100550000048704740000020034640688C46002851
:1005600018BF88423CBF03464068F8D31868184457
:10057000884207D00CF1030020F00700001D411A4B
:10058000521A0146081D0A60FFF766BF10B500F059
:100590005FF8BDE8104000F056B84FF0000200B51B
:1005A000134694469646203922BFA0E80C50A0E896
:1005B0000C50B1F12001BFF4F7AF090728BFA0E844
:1005C0000C5048BF0CC05DF804EB890028BF40F810
:1005D000042B08BF704748BF20F8022B11F0804F52
:1005E00018BF00F8012B704770477546FFF7B0FF42
:1005F000AE4605006946534620F00700854618B010
:1006000020B5FFF73DFEBDE820404FF000064FF05B
:1006100000074FF000084FF0000BAC46ACE8C009F3
:10062000ACE8C009ACE8C009ACE8C00921F007019A
:100630008D46704710B50446AFF300802046BDE8F4
:100640001040FFF7EEBD002801D000F029B8704738
:1006500010B5012805D0002103A000F027F80120E3
:1006600010BD09A1F8E7000053494752544D454DCC
:100670003A204F7574206F662068656170206D6543
:100680006D6F7279000000003A2048656170206D3E
:10069000656D6F727920636F727275707465640036
:1006A00001491820ABBEFEE72600020070B50546E2
:1006B0000C460A2000E06D1C00F011F835B12878D6
:1006C0000028F8D102E0641C00F009F814B1207889
:1006D0000028F8D1BDE870400A20AFF3008008B5CB
:1006E00069468DF800000320ABBE08BD42F2084009
:1006F000C4F2000001684907FCD46FF00301002236
:10070000431804313C291A61FAD1016841F004010F
:100710000160704741F29000C4F2020050F8381CAA
:10072000C90005D450F8381C41F0805140F8381CFD
:1007300047F20001C4F2000150F8382C0A68D205D3
:1007400007D40A6842F480720A6000BF0A68D205C2
:10075000FCD5016821F005010160016841F4803198
:100760000160016821F4803101600168890706D4C5
:10077000016841F00101016001688907F8D501684D
:1007800021F440710160016841F48071016050F80A
:10079000381C21F0805140F8381C50F8381C41F4C6
:1007A000007140F8381C704742F20040C4F200006B
:1007B000016821F060010160016841F040010160C1
:1007C000016821F01C010160016841F00401016031
:1007D000016841F008010160416821F4E051416085
:1007E000416841F480614160416841F400614160C9
:1007F000416841F480514160416821F070014160DD
:10080000416841F010014160416841F020014160C0
:10081000416841F040014160016821F080010160C0
:10082000016821F002010160016821F0010101600D
:10083000016841F0010101608168C907FCD000BF77
:100840008168C906FCD5704710B590F800C0ACF1BE
:100850002004DF2C00F236810FF208004FF0000E6A
:10086000DFE814F0E800300130013001300105010B
:100870003001300108010B010E0115013001180192
:1008800030011B01E000E000E000E000E000E000DB
:10089000E000E000E000E000300130013001300114
:1008A00030013001300130013001300130013001C0
:1008B00030013001300130013001300130013001B0
:1008C00030013001300130013001300130013001A0
:1008D0003001300130013001300130013001300190
:1008E0003001300130013001300130011E01300192
:1008F000300130013001300130013001300121017F
:10090000240130013001300130013001300130016B
:10091000300130013001300130013001300130014F
:10092000300130013001300130013001300130013F
:10093000300130013001300130013001300130012F
:10094000300130013001300130013001300130011F
:10095000300130013001300130013001300130010F
:1009600030013001300130013001300130013001FF
:1009700030013001300130013001300130013001EF
:1009800030013001270130013001300130012A01EE
:1009900030013001300130013001300130013001CF
:1009A00030013001300130013001300130013001BF
:1009B00030013001300130013001300130013001AF
:1009C000300130013001300130013001300130019F
:1009D000300130013001300130013001300130018F
:1009E000300130013001300130013001300130017F
:1009F000300130013001300130013001300130016F
:100A0000300130013001300130013001300130015E
:100A1000300130013001300130013001300130014E
:100A200030012D0141F6B050C0F6000000EB4C0043
:100A300030F860EC002918BF4EF0020E002A18BFF3
:100A40004EF0200E1FFA8EFE0C214FF0FF326FF099
:100A5000030C00BFCCB22EFA04F49818013204F053
:100A60000F04032A5CFA81F14470F3D110BD4FF4F6
:100A7000334EDFE74FF0280EDCE74FF0110ED9E7D9
:100A80004AF21400CFF6FF7000F1C90ED2E74AF225
:100A9000140ECFE74FF4204ECCE74FF0C00EC9E75D
:100AA0004FF4734EC6E74BF2102EC3E742F2102EFE
:100AB000C0E74FF46C4EBDE746F2840EBAE74FF63E
:100AC000DD7EB7E7ACF14100192808D841F67C502B
:100AD000C0F6000000EB4C0030F882EC01E04FF073
:100AE000000EACF161001928A4D841F67C50C0F684
:100AF000000000EB4C0030F8C2EC9BE710B5002181
:100B000000220023044600F0D5F8601C00210022DA
:100B1000012300F0CFF8A01C00210022022300F0E6
:100B2000C9F8E01C00210022032300F0C3F8201DB7
:100B300000210022042300F0BDF8601D00210022E6
:100B4000052300F0B7F810BD80B500F007F8FFF7F7
:100B5000E1FDFFF729FEFFF7C9FD80BD41F24C0022
:100B6000C4F20200016840F6FF7241F00101016029
:100B70000168C3F6C07241F002010160016841F0F2
:100B800004010160016841F0080101604FF09040EC
:100B900001681140016001684AF20002C8F22A02AD
:100BA000114301602020C4F6000001684FF20002EA
:100BB00021F07F4101600168C0F6FF7241F03B41C6
:100BC0000160416811404160416840F6BB32CBF2A0
:100BD000000211434160D0F8E0134FF2F002C0F27E
:100BE000F3021140C0F8E013D0F8E01340F60A22F7
:100BF000CAF608221143C0F8E013D0F800144FF6EB
:100C00000F7221F0FF11C0F80014D0F8001441F069
:100C1000BB11C0F8001440F22440C4F60000016883
:100C2000114001600168B022CBF6BB321143016074
:100C3000D0F8DC134BF200026FF39111C0F8DC1313
:100C4000D0F8DC13CBF6BB3241F4203141F42A5109
:100C5000C0F8DC13D0F8FC136FF31F31C0F8FC139D
:100C6000D0F8FC131143C0F8FC13D0F8001421F0A5
:100C70000F01C0F80014D0F8001441F00B01C0F8C7
:100C8000001440F60040C4F60000016889B201601B
:100C9000016841F02A4141F42A010160016A0162C0
:100CA000016A0162416A00214162416A41F0BB313F
:100CB00041627047B0B582B01C4642F2144501ABA8
:100CC000C4F20005FFF7C0FD55F80C0C4007FBD43B
:100CD000052C00F25D82DFE814F006006300C4001A
:100CE00021018A01FB0128684FF6E771CFF63F71B9
:100CF00008402860A8680840A86028690840286162
:100D0000A8690840A8619DF804002C6800F0010162
:100D100000F0020200F0040300F00800204340EA63
:100D2000825040EA011040EA035028609DF8050017
:100D3000AC6800F0010100F0020200F0040300F0D2
:100D40000800204340EA825040EA011040EA035084
:100D5000A8609DF806002C6900F0010100F0020275
:100D600000F0040300F00800204340EA825040EA0B
:100D7000011040EA035028619DF80700AC6900F0BB
:100D8000010100F0020200F0040300F0080020431B
:100D900040EA825040EA011040EA0350A861F7E1BE
:100DA00028684CF69F71CFF6FF7108402860A8684C
:100DB0000840A860286908402861A8690840A8611F
:100DC0009DF804002C6800F0020200F0010144EAE2
:100DD000023200F0040342EA811100F0080041EA07
:100DE000832141EA800028609DF80500AC6800F08E
:100DF000020200F0010144EA023200F0040342EA78
:100E0000811100F0080041EA832141EA8000A860D6
:100E10009DF806002C6900F0020200F0010144EA8E
:100E2000023200F0040342EA811100F0080041EAB6
:100E3000832141EA800028619DF80700AC6900F039
:100E4000020200F0010144EA023200F0040342EA27
:100E5000811100F0080041EA832141EA8000A86185
:100E600096E1286843F6FF71CCF6FF7108402860D0
:100E7000A8680840A860286908402861A869084057
:100E8000A8619DF804002C68C10300F0020289B239
:100E900044EA027200F00403114300F0080041EA42
:100EA000836141EAC02028609DF80500AC68C10359
:100EB00000F0020289B244EA027200F00403114316
:100EC00000F0080041EA836141EAC020A8609DF873
:100ED00006002C69C10300F0020289B244EA0272E2
:100EE00000F00403114300F0080041EA836141EA85
:100EF000C02028619DF80700AC69C10300F0020220
:100F000089B244EA027200F00403114300F00800C1
:100F100041EA836141EAC020A86139E1286820F0F4
:100F200040402860686820F003006860A86820F0EE
:100F30004040A860E86820F00300E860286920F0DD
:100F400040402861686920F003006861A86920F0CA
:100F50004040A861E86920F00300E8619DF80400C2
:100F6000296800F0080241EAC07141EAC2612960C3
:100F700000F00201C0F380006A6808441043686012
:100F80009DF80500A96800F0080241EAC07141EA35
:100F9000C261A96000F00201C0F38000EA68084461
:100FA0001043E8609DF80600296900F0080241EA54
:100FB000C07141EAC261296100F00201C0F3800002
:100FC0006A690844104368619DF80700A96900F048
:100FD000080241EAC07141EAC261A96100F0020160
:100FE000C0F38000EA6908441043E861D0E0286853
:100FF00020F040702860686820F00C006860A868E5
:1010000020F04070A860E86820F00C00E8602869D3
:1010100020F040702861686920F00C006861A869C0
:1010200020F04070A861E86920F00C00E8619DF8AC
:1010300004102A6801F0040301F0020042EA83521E
:1010400042EA00602860042000EA51026B6861F304
:10105000C30242EA030169609DF80510AB6801F024
:10106000040401F0020243EA845343EA0262AA60E4
:1010700000EA5102EB6861F3C30242EA0301E9604E
:101080009DF806102B6901F0040401F0020243EA06
:10109000845343EA02622A6100EA51026B6961F3F8
:1010A000C30242EA030169619DF80710AB6901F0D0
:1010B000040401F0020243EA845343EA0262AA6193
:1010C00000EA5100EA6961F3C3001043E8615FE0A0
:1010D00028684FF6FF41CFF6FD3108402860A86828
:1010E0000840A860286908402861A8690840A861EC
:1010F0009DF804002C6800F0020200F0010144EAAF
:10110000C21200F0040342EA414100F0080041EA43
:10111000C31141EAC05028609DF80500AC6800F09A
:10112000020200F0010144EAC21200F0040342EAA4
:10113000414100F0080041EAC31141EAC050A860F3
:101140009DF806002C6900F0020200F0010144EA5B
:10115000C21200F0040342EA414100F0080041EAF3
:10116000C31141EAC05028619DF80700AC6900F046
:10117000020200F0010144EAC21200F0040342EA54
:10118000414100F0080041EAC31141EAC050A861A2
:1011900000F008F855F80C0C40F0040045F80C0C71
:1011A00002B0B0BD42F22440C4F2000050F81C1C52
:1011B0004907FBD401684FF6FF62CFF6FF5211409A
:1011C000016081681140816040F2A001C2F200011B
:1011D0000978CA0710D18A0714D44A0718D4090716
:1011E00003D5016841F00071016050F81C1C41F00A
:1011F000040140F81C1C7047826842F480728260CF
:101200008A07EAD5026842F4807202604A07E6D58E
:10121000826842F0007282600907E6D5E1E70000CB
:1012200040F2A400C2F20000016801390160704779
:10123000B0B54EF21004CEF200040025013825604E
:10124000606000F00FF8A560206820F004002060C6
:10125000206840F002002060206840F0010020601B
:10126000B0BD00004EF62350CEF2000010210170F8
:101270007047000000F1090113293CBF01207047AD
:1012800000F16301C7293CBF0220704700F2E7313B
:1012900040F2CF7291423CBF0320704742F20F717F
:1012A000014444F61F6291423CBF0420704700F5A0
:1012B000C33040F63F519F30C0F2030188422CBF3B
:1012C000062005207047000010B582B031208DF84F
:1012D000070032208DF8060033208DF8050020200D
:1012E00001AC8DF804002046002100220023FFF706
:1012F000E1FC2046002100220123FFF7DBFC204611
:10130000002100220223FFF7D5FC20460021002205
:101310000323FFF7CFFC2046002100220423FFF720
:10132000C9FC2046002100220523FFF7C3FC0DF174
:101330000500002100220323FFF7BCFC4FF4967048
:1013400000F08AF80DF10600002100220323FFF7C8
:10135000B1FC4FF4967000F07FF80DF1070000210A
:1013600000220323FFF7A6FC4FF4967000F074F8F8
:1013700002B010BD41F24C0CC4F2020CDCF80000CB
:1013800040F6FC4340F00100CCF80000DCF800001F
:1013900040F6FF7240F01000CCF800004FF0904093
:1013A00001689943016041F21401C4F6000151F84B
:1013B000140C20F07F6041F8140C51F8140C40F02C
:1013C000AA6041F8140C0B680C2023F47053C4F687
:1013D00000000B60036823EA02020260026840F228
:1013E00054431A430260DCF8002042F00202CCF8B9
:1013F0000020D0F8F42322F03002C0F8F42351F892
:10140000142C42F0100241F8142C0A6822F44032E5
:101410000A600A6822F480320A600A6822F4705274
:101420000A60436843F673720021C0F2350200BFC0
:1014300003F02E032E2B07D101314368914204BFE4
:1014400040F209307047F3E744F28D00CBF6C83024
:10145000A1FB0001080A704740F2A401C2F200019A
:10146000086000BF08680028FCD1704780B541F2D1
:101470004C0CC4F2020CDCF8001040F6FC4341F0C6
:101480000101CCF80010DCF8001040F6FF7041F0CC
:101490001001CCF800104FF090410A689A430A609E
:1014A00041F20001C4F600010A6822F07F620A607E
:1014B0000A6842F0AA620A604A6922F470524A61DC
:1014C0000C22C4F60002136823EA000010601068C2
:1014D00040F2544318431060DCF8000040F0020072
:1014E000CCF80000D2F8F40320F03000C2F8F40386
:1014F000086840F010000860486920F440304861F6
:10150000486920F48030486100F070FB80BD000025
:1015100080B502A0FFF7F2FA80BD00BF204C45560F
:10152000454C000080B502A0FFF7E8FA80BD00BF7F
:101530002B2B2B2B2B2B000080B504A0FFF7DEFA02
:101540004FF49670FFF788FF80BD00BF20474F4FD4
:1015500044000000B0B582B040F20931884207D1A2
:1015600041F6C450C0F60000FFF7C8FA002466E058
:1015700073218DF8041020218DF8031044F6D35107
:10158000C1F2620150FB01F18A0902EBD17148F20C
:101590001F52C5F2EB1250FB02F2531103EBD27251
:1015A00046F26763C6F2666352FB03F5AC0804EBD0
:1015B000D57505EB850550FB03F0A2EB45028510C0
:1015C00005EBD07050FB03F39D0805EBD37303EBE1
:1015D0008303A0EB430030318DF8051002F1300198
:1015E00030300DF103058DF806108DF80700284600
:1015F000002100220023FFF75DFB0DF10500012112
:10160000002201230124FFF755FB0DF10600002104
:1016100000220223FFF74EFB0DF1070000210022FC
:101620000323FFF747FB2846002100220423FFF78E
:1016300041FB01A8002100220523FFF73BFB2046C8
:1016400002B0B0BD70B582B0164646F26762C6F20F
:10165000666250FB02F351FB02F29C10951004EB02
:10166000D37305EBD27203EB830402EB8205A0EB8C
:101670004404A1EB4505303330328DF8073004F1D6
:1016800030038DF8052005F1300209308DF8063061
:1016900012288DF804209CBF20208DF8070001F14E
:1016A000090012289EBF8DF8052020208DF8040027
:1016B0002B208DF803002D208DF8020078208DF866
:1016C00001003D208DF800000DF1070000210022EF
:1016D0000023FFF7EFFA0DF106000021002201239D
:1016E000FFF7E8FA0DF10500002100220323FFF7C0
:1016F000E1FA01A8002100220423FFF7DBFA684683
:10170000002100220523FFF7D5FA012E06D0032E73
:1017100007D0022E0CD10DF1020004E00DF1030000
:1017200001E00DF10100002100220223FFF7C2FABF
:1017300002B070BD80B504A0FFF7E0F940F2DC50C4
:10174000FFF78AFE80BD00BF2D2D2D2D2D2D000011
:1017500080B502A0FFF7D2F980BD00BF50312057FD
:10176000494E000080B502A0FFF7C8F980BD00BF58
:1017700050322057494E000080B504A0FFF7BEF953
:101780004FF42F70FFF768FE80BD00BF5031206717
:101790006F21000080B504A0FFF7B0F94FF42F705F
:1017A000FFF75AFE80BD00BF503220676F21000056
:1017B00010B582B030308DF8070070208DF806002B
:1017C00074208DF8050020208DF8030001F1300011
:1017D0000DF106048DF804002046002100220023AC
:1017E000FFF768FA01A8002100220123FFF762FA3F
:1017F0000DF10300002100220223FFF75BFA0DF137
:101800000700002100220323FFF754FA204600219D
:1018100000220423FFF74EFA0DF1050000210022FB
:101820000523FFF747FA02B010BD000080B502A003
:10183000FFF764F980BD00BF202054494520000017
:1018400080B504A0FFF75AF94FF49670FFF704FE35
:1018500080BD00BF2057524F4E470000032A034669
:1018600008D0022A04BF581A7047012A04BFC818BA
:101870007047704701FB03F0704700002DE9F04707
:1018800003AF0546072000EB850020F00700ADEB15
:101890000008C546012D09DBA8F104062C4600BF4F
:1018A000FFF7E4FD013C46F8040FF9D1012D0EDBF2
:1018B000A8F104010122002051F82530013D03FB6D
:1018C000020002EB82024FEA4202F5DC00E0002057
:1018D000A7F10C04A546BDE8F087000080B5FFF72E
:1018E000C5FDA0F58061B1FA81F1490943F20032EA
:1018F000B0F5E06F08BF0221C0F20402904208BFB9
:101900000321084680BD000041F24C00C4F20200F1
:10191000016841F0010101604FF09040016821F041
:1019200003010160016821F00C010160016821F0F0
:1019300030010160016821F0C0010160016821F4FB
:1019400040610160704700002DE9F047FFF7FCF8A7
:101950004FF47A70FFF76CFCFFF7D6FF00F00EF93A
:10196000FFF7D6FDFFF7BAFF0546FFF705FF4FF07B
:101970000008012440F2093911E000BF0746304653
:10198000FFF778FCFFF77AFF31463A4600F0E2F8BD
:1019900080444FF4FA70FFF75FFD013C13D1FFF76D
:1019A00093FC092004212A46FFF758FF0646092028
:1019B00004212A46FFF746FEFFF7DCFC4845DDD14F
:1019C00000F050F8E5E7404601210126FFF7F0FE60
:1019D0004FF47A70FFF740FDFFF7ACFEFFF7DAFE39
:1019E0004FF0000940F2093A11E000BF04463846C2
:1019F000FFF740FCFFF742FF3946224600F0AAF805
:101A000081444FF4FA70FFF727FD013E13D1FFF731
:101A10005BFC092004212A46FFF720FF0746092026
:101A200004212A46FFF70EFEFFF7A4FC5045DDD146
:101A300000F018F8E5E748460221FFF7B9FE4FF439
:101A40007A70FFF709FDFFF775FE4046494600F042
:101A5000ABF84FF47A70FFF7FFFCFFF763FD00204F
:101A6000BDE8F08780B541F6C450C0F60000FFF72E
:101A700045F880BD2DE9F04F83B00C468346481EE3
:101A80004CF6CD414FF0000ACCF6CC41024600BFE7
:101A90000132A2FB0137BB0803EB8303AAF1010A61
:101AA000C31A5345F4D1A4EB0A00C51C40F2100838
:101AB0002846C4F60008FEF7FDFB0646671C0444F2
:101AC000CAF1030906300290304659463A46FEF7FD
:101AD00020FCBAF1030F04D0204649462022FEF72D
:101AE0005DFC019400243019FFF708F848F2A0606B
:101AF000C0F20100D8F80010C90725D10138F9D18A
:101B0000A54204F10104EED142F22000B0804FF072
:101B100020303060029859462A46FEF7FAFB002032
:101B200004463044FEF7EAFF48F2A060C0F201002C
:101B3000D8F80010C90707D10138F9D12046601C38
:101B4000019C0628ECD1BFE703B000F000B830BC20
:101B5000BDE8C08F10B588420BD11446FFF7ECFCEE
:101B60004FF4FA70FFF778FC2046FFF7F3FC0120F2
:101B700010BDFFF765FE002010BD000080B502A07B
:101B80001E21FFF777FF80BD505245535320425529
:101B900054544F4E20544F205354415254205448D3
:101BA000452047414D450000B0B50C460121054692
:101BB000FFF7FEFD4FF42F70FFF74EFC2046022189
:101BC000FFF7F6FD4FF42F70FFF746FCA54202DD4C
:101BD000FFF7BEFD05E002DAFFF7C4FD01E0FFF705
:101BE00025FE41F28830FFF737FCB0BD2DE9FE5FDE
:101BF0004FF0010C5748416921F4705141614FF099
:101C000002014FF000004FF000024FF000034FF0D0
:101C100000044FF000054FF000064FF000074FF0B2
:101C200000084FF000094FF0000000F05EF80028B7
:101C300012BF490088460722102908BF49004029E1
:101C400008BF0221EFD00028EDD104D00829B8BF89
:101C50004900E8DBCEE700F02AF881464FF00000AB
:101C60004946404600F059F84FF00403A1F1010144
:101C700003FB01F30344A3F101034FEA83030528A7
:101C800008BF013B3448C05883463248416921F4BB
:101C90007051416100F032F80028FBD10CF1010CC9
:101CA000BCF1020FA6DB584600F058B8FEE7F0B5CD
:101CB00016464FEA8626274C656925F4705545EA95
:101CC000060565614FF0000B0BF1010BBBF57A7F48
:101CD000FAD100F013F8002804BF52080832E7D008
:101CE00018BF1046BDE8F0407047F0B54FF0904483
:101CF000256905EA0100BDE8F0407047F0B54FF0F6
:101D00002E074FF09044256905EA0700B8420CBF42
:101D100000200120BDE8F0407047F0B504460D46B4
:101D20004FF00106012C1CBF6408761CFAD104BFD9
:101D3000304601384FF001064FF0010707EA050170
:101D400000290EBF31467F00761CF7D1BDE8F04078
:101D50007047000000100048000000203EBCBDE8B5
:101D6000C09FF1EE100A4FF6FF71C0F2C03120EAB9
:101D7000010040F04070E1EE100A704700FE146769
:101D8000001D1447009D009C003F00FA1400005302
:101D900041980019485A095A005F00FC015F01FC94
:101DA00000AF1404005BC018815AC9005800C00578
:101DB000005F004200F5006700EA00AF00BF004688
:101DC00000FF00EF4D49535345440000F01D00084B
:101DD0000000002040000000C4010008301E000880
:101DE0004000002068060000E0010008000000003C
:101DF0000100000002000000030000000A000000D3
:101E00000400000005000000060000000B000000B8
:101E10000700000008000000090000000C0000009E
:101E2000330400000000000039040000000000003E
:0400000500000000F7
:00000001FF
