:020000040800F2
:1000000068060020310200086D0200086F02000837
:100010007102000873020008750200080000000069
:10002000000000000000000000000000770200084F
:1000300079020008000000007B020008F1120008AD
:100040007F0200087F0200087F0200087F0200088C
:100050007F0200087F0200087F0200087F0200087C
:100060007F0200087F0200087F0200087F0200086C
:100070007F0200087F0200087F0200087F0200085C
:100080007F0200087F0200087F0200087F0200084C
:100090007F0200087F0200087F0200087F0200083C
:1000A0007F0200087F0200087F0200087F0200082C
:1000B0007F0200087F0200087F0200087F0200081C
:1000C0007F0200087F0200087F0200087F0200080C
:1000D0007F0200087F0200087F0200087F020008FC
:1000E0007F0200087F0200087F0200087F020008EC
:1000F0007F0200087F0200087F0200087F020008DC
:100100007F0200087F0200087F0200087F020008CB
:100110007F0200087F0200087F0200087F020008BB
:100120007F0200087F0200087F0200087F020008AB
:100130007F0200087F0200087F0200087F0200089B
:100140007F0200087F0200087F0200087F0200088B
:100150007F0200087F0200087F0200087F0200087B
:100160007F0200087F0200087F0200087F0200086B
:100170007F0200087F0200087F02000800000000E4
:100180007F0200087F02000800F002F800F040F84B
:100190000AA090E8000C82448344AAF10107DA45E2
:1001A00001D100F035F8AFF2090EBAE80F0013F0F4
:1001B000010F18BFFB1A43F001031847A0140000F9
:1001C000C0140000103A24BF78C878C1FAD852078A
:1001D00024BF30C830C144BF04680C6070470000C1
:1001E0000023002400250026103A28BF78C1FBD840
:1001F000520728BF30C148BF0B6070471FB501F0E0
:1002000003FA9DE8030000F0C3F81FBD10B510BD50
:1002100000F042F91146FFF7F1FF01F053F900F049
:1002200060F903B4FFF7F2FF03BC00F091F900009E
:1002300016481749174B99423CBF50F8042B41F818
:10024000042BF8D314494FF000028B4238BF43F817
:10025000042BFAD3DFF84400016841F47001016017
:10026000BFF34F8FBFF36F8F0D480047FEE7FEE7E8
:10027000FEE7FEE7FEE7FEE7FEE7FEE7FEE7FEE756
:1002800008480949094A0A4B704700007C160008D3
:1002900000000020080000206806002088ED00E033
:1002A000890100086800002068060020680200201C
:1002B0006802002070B5064600F04EF8056806F1A9
:1002C0000B0020F00704B4429CBF002070BD2B46F9
:1002D0006A68BAB11068A04210D304F108018842DC
:1002E0003CBF5068586007D35168101941601168CD
:1002F000091B016058601460101D70BD13465268E0
:10030000002AE7D12146284600F02EF80028DED149
:1003100070BD10B5431C02E010F8011B71B18107DC
:10032000FAD14FF0013202C88C1A8C4314EAC21180
:10033000F9D0C01A0A0603D0C01E10BDC01A10BDE5
:100340000A0401D0801E10BD0902FCD0401E10BD61
:100350007047704770470000004870471000002049
:10036000704770477047704738B504460A4600200A
:100370006946AFF30080002808BF38BD02460099E7
:10038000204600F067F8012038BD012000F07CB85D
:10039000F8B5AFF30080054600200C46102000BFE2
:1003A0000646A819A0420DD9324669460020AFF38F
:1003B0000080070008BF00F067F80098A04218BF4F
:1003C0000546C419FFF7C8FF05600746F01D20F079
:1003D00007004619284600F00AF8B44208BFF8BDE5
:1003E000A21B31463868BDE8F84000F033B8002160
:1003F0000160C0E9011070471020704770B50446D5
:10040000051FFFF7A9FF0068002C14BF446870BDEA
:10041000002C18BFAC423CBF20466468F8D301688A
:100420000A18AA4218BF456003D12A68054611443C
:10043000016028684119A1421CBF6C6070BD6168F1
:10044000696021680844286070BD0000004870475A
:1004500008000020034640688C46002818BF8842E8
:100460003CBF03464068F8D318681844884207D058
:100470000CF1030020F00700001D411A521A01463A
:10048000081D0A60FFF7BABF10B500F039F8BDE8E3
:10049000104000F02FB870477546FFF7D7FFAE4603
:1004A00005006946534620F00700854618B020B580
:1004B000FFF7E6FEBDE820404FF000064FF00007D2
:1004C0004FF000084FF0000B21F00701AC46ACE8FC
:1004D000C009ACE8C009ACE8C009ACE8C0098D4669
:1004E000704710B50446AFF300802046BDE81040C9
:1004F000FFF797BE002801D000F02AB8704700002F
:1005000010B5012805D0002103A000F027F8012034
:1005100010BD09A1F8E7000053494752544D454D1D
:100520003A204F7574206F662068656170206D6594
:100530006D6F7279000000003A2048656170206D8F
:10054000656D6F727920636F727275707465640087
:1005500001491820ABBEFEE72600020070B5054633
:100560000C460A2000E06D1C00F011F835B1287827
:100570000028F8D102E0641C00F009F814B12078DA
:100580000028F8D1BDE870400A20AFF3008008B51C
:1005900069468DF800000320ABBE08BD002000BFF7
:1005A0000B49096801F004010029F9D1002006E097
:1005B000002207490C3141F82020411CC8B20F2805
:1005C000F6DD0349096841F00401014A11607047F2
:1005D000082400402F48806D00F0805028B92D4835
:1005E000806D40F080502B4988652A48806D2A48EC
:1005F000006800F4807060B92748006840F480709B
:100600002549086000BF2448006800F48070002875
:10061000F9D020489030006820F005001D49C1F84D
:1006200090000846D0F8900040F48030C1F8900067
:100630000846D0F8900020F48030C1F8900007E020
:1006400014489030006840F001001249C1F8900051
:1006500010489030006800F002000028F0D00D48EB
:100660009030006820F440700A49C1F890000846B4
:10067000D0F8900040F48070C1F890000846806D7A
:1006800020F0805088650846806D40F400708865D1
:1006900070470000001002400070004034480068BD
:1006A00020F06000324908600846006840F04000D1
:1006B00008600846006820F01C00086008460068D2
:1006C00040F0040008600846006840F00800086038
:1006D000081D006820F4E050091D08600846006805
:1006E00040F4806008600846006840F400600860DC
:1006F0000846006840F4805008600846006820F012
:10070000700008600846006840F010000860084665
:10071000006840F0200008600846006840F0400093
:100720000860081F006820F08000091F0860084664
:10073000006820F0020008600846006820F0010010
:1007400008600846006840F00100086000BF0848E3
:100750000830006800F001000028F8D000BF04480D
:100760000830006800F010000028F8D07047000042
:1007700000240040F0B50C4615460021002600225A
:100780000778342F53D00FDCA7F12007142F5AD24B
:10079000DFE807F02359595959435959282A253B6D
:1007A0005938593E494A4B4C642F1FD008DCA7F1F9
:1007B0003507052F47D2DFE807F03B3C3D3E3F00C1
:1007C000B02F27D004DC6D2F13D06E2F3BD113E058
:1007D000B52F14D0FF2F36D122E000214CE04AF291
:1007E000DD0149E0282147E0112145E04FF4734144
:1007F00042E04BF210213FE042F210213CE046F291
:10080000840139E04FF4204136E04AF2140133E02C
:10081000C02131E04FF46C412EE04FF433412BE026
:100820004FF6DD7128E000BF00BF00BF00BF00BF72
:1008300000BF00BF00BF00BF0778303FDFF864C0D3
:100840003CF8171018E007785B2F08DA0778402F7C
:1008500005DD0778413FDFF850C03CF817100778F6
:100860007B2F08DA0778602F05DD0778613FDFF816
:1008700038C03CF8171000BF00BF0CB141F00201B6
:100880000DB141F020010C26002208E041FA06F7E4
:1008900007F00F079F54371FFEB2571CFAB2042A05
:1008A000F4DBF0BD461600081216000810B5044629
:1008B00000231A461946204600F0F0F801230022D2
:1008C0001146601C00F0EAF8022300221146A01C29
:1008D00000F0E4F8032300221146E01C00F0DEF8EB
:1008E000042300221146201D00F0D8F80523002221
:1008F0001146601D00F0D2F810BD00B500F008F8F8
:10090000FFF768FEFFF7CAFEFFF748FE00BD0000D4
:100910005348C06C40F001005149C8640846C06C9F
:1009200040F00200C8640846C06C40F00400C8648F
:100930000846C06C40F00800C8644FF09040006862
:10094000484908404FF09041086008460068464911
:1009500008434FF0904108600846006A20F07F404D
:1009600008620846006A40F03B4008620846406A58
:100970003E4908404FF0904148620846406A3C4971
:1009800008434FF0904148623A4800683A490840AD
:100990003849086008460068384908433549086006
:1009A00034482030006800F0FF20324920310860D0
:1009B0000846006840F0BB1008602E48406A4FF6B9
:1009C0000F7108402B4948620846406A2C49084389
:1009D000284948622B4800682B490840294908608B
:1009E0000846006829490843264908602548203000
:1009F0000068C0F30B0023492031086008460068F6
:100A0000234908431F49203108601E48406A20F0EE
:100A10000F011C484162406A40F00B0119484162D5
:100A20001C48006880B21B490860084600681A49E3
:100A300008431849086017482030006815492031DC
:100A400008600846006808601248406A00211148A2
:100A50004162406A40F0BB310E484162704700007D
:100A600000100240FF0FC03F00A02A8000F0FF0FDF
:100A7000BB0B00B000040048F0F0F3000A0A08AA1B
:100A8000B000BBBB000800483F00FCFF80AA02008A
:100A900000B0BBBB000C00480000AAAAF8B5054690
:100AA0000E4617461C466B463A4631462846FFF727
:100AB00061FE00BFFE48006800F004000028F9D184
:100AC000062C7DD2DFE804F00398FCFBFAF9F84825
:100AD0000C300068F7490840F5490C310860F448CB
:100AE0000838C069F3490840F1490839C861084627
:100AF000406AF0490840EE49083948620846C06A31
:100B0000EC490840EA490839C8629DF80000C0076E
:100B1000C00E9DF80010C1F3400140EAC1509DF89D
:100B20000010C1F3800140EA81509DF80010C1F32C
:100B3000C00140EAC100DE490C3109680843DC49C4
:100B40000C3108609DF80100C007C00E9DF801102F
:100B5000C1F3400140EAC1509DF80110C1F380018A
:100B600040EA81509DF80110C1F3C00140EAC10084
:100B7000CF490839C9690843CD490839C8619DF88A
:100B80000200C007C00E9DF80210C1F3400140EA08
:100B9000C1509DF80210C1F3800140EA81509DF8D8
:100BA0000210C1F3C00140EAC100C1490839496AD5
:100BB0000843BF49083948629DF80300C00700E0B8
:100BC0002EE3C00E9DF80310C1F3400140EAC1506E
:100BD0009DF80310C1F3800140EA81509DF8031095
:100BE000C1F3C00140EAC100B1490839C96A0843EC
:100BF000AF490839C86214E3AD480C30006843F2CD
:100C000060018843AA490C310860A9480838C069C6
:100C100043F260018843A6490839C8610846406A22
:100C200043F260018843A249083948620846C06A15
:100C300043F2600188439E490839C8629DF800006C
:100C4000C007400E9DF80010C1F3400140EA41305A
:100C50009DF80010C1F3800140EA01309DF80010BA
:100C6000C1F3C00140EA411091490C3109680843C1
:100C70008F490C3108609DF80100C007400E9DF8B7
:100C80000110C1F3400140EA41309DF80110C1F369
:100C9000800140EA01309DF80110C1F3C00140EA33
:100CA000411083490839C969084381490839C86135
:100CB0009DF80200C007400E03E028E27CE1CAE094
:100CC00036E09DF80210C1F3400140EA41309DF842
:100CD0000210C1F3800140EA01309DF80210C1F317
:100CE000C00140EA411072490839496A0843704915
:100CF000083948629DF80300C007400E9DF80310B4
:100D0000C1F3400140EA41309DF80310C1F3800176
:100D100040EA01309DF80310C1F3C00140EA4110E0
:100D200063490839C96A084361490839C86278E2E9
:100D30005F480C300068604908405D490C3108602C
:100D40005B480838C0695C49084059490839C8619E
:100D50000846406A584908405549083948620846DB
:100D6000C06A5549084052490839C8629DF80000D8
:100D7000C007000C9DF80010C1F3400140EA41702B
:100D80009DF80010C1F3800140EA01709DF8001049
:100D9000C1F3C00140EA813045490C31096808437C
:100DA00043490C3108609DF80100C007000C9DF814
:100DB0000110C1F3400140EA41709DF80110C1F3F8
:100DC000800140EA01709DF80110C1F3C00140EAC2
:100DD000813037490839C969084335490839C8613C
:100DE0009DF80200C007000C9DF80210C1F34001FD
:100DF00040EA41709DF80210C1F3800140EA0170A1
:100E00009DF80210C1F3C00140EA81302849083939
:100E1000496A08432649083948629DF80300C0071B
:100E2000000C9DF80310C1F3400140EA41709DF8A9
:100E30000310C1F3800140EA01709DF80310C1F373
:100E4000C00140EA81301A490839C96A0843184983
:100E50000839C862E5E116480C30006820F04040CF
:100E600013490C31086012480838806920F00301EA
:100E70000F4808388161C06920F040410C480838AB
:100E8000C161006A20F00301094808380162406A24
:100E900020F04041064808384162806A20F0030192
:100EA000034808388162C06A20F04041004805E0EC
:100EB00008240040E7FF3FFFFF3FFFCF0838C16233
:100EC000006B20F00301DD4801639DF80000C007BE
:100ED0009DF80010C1F3C00140EA8170D749143178
:100EE00009680843D549143108609DF80000C0F333
:100EF00080009DF80010C1F3400140EA4100CF4955
:100F000089690843CD4988619DF80100C0079DF8B3
:100F10000110C1F3C00140EA8170C849C9690843A2
:100F2000C649C8619DF80100C0F380009DF801101A
:100F3000C1F3400140EA4100C049096A0843BF4982
:100F400008629DF80200C0079DF80210C1F3C001BD
:100F500040EA8170B949496A0843B84948629DF836
:100F60000200C0F380009DF80210C1F3400140EA86
:100F70004100B249896A0843B04988629DF803007C
:100F8000C0079DF80310C1F3C00140EA8170AB496E
:100F9000C96A0843A949C8629DF80300C0F38000EC
:100FA0009DF80310C1F3400140EA4100A349096BD9
:100FB0000843A249086334E1A0481430006820F0D7
:100FC00040709E49143108609C48806920F00C01F3
:100FD0009A488161C06920F040719848C161006AF7
:100FE00020F00C0195480162406A20F0407193485E
:100FF0004162806A20F00C0190488162C06A20F052
:1010000040718E48C162006B20F00C018B48016377
:101010009DF80000C0F3400040069DF80010C1F3A9
:10102000800140EA01608549143109680843834919
:10103000143108609DF80000C007000F9DF80010F3
:10104000C1F3C00140EA81007C49896908437B49BA
:1010500088619DF80100C0F3400040069DF8011032
:10106000C1F3800140EA01607449C96908437349CA
:10107000C8619DF80100C007000F9DF80110C1F381
:10108000C00140EA81006D49096A08436B49086262
:101090009DF80200C0F3400040069DF80210C1F325
:1010A000800140EA01606549496A08436349486232
:1010B0009DF80200C007000F9DF80210C1F3C001A7
:1010C00040EA81005D49896A08435C4988629DF86D
:1010D0000300C0F3400040069DF80310C1F38001F7
:1010E00040EA01605549C96A08435449C8629DF8FD
:1010F0000300C007000F9DF80310C1F3C00140EAD0
:1011000081004E49096B08434C49086389E04B480C
:10111000143000684A49084048491431086047487B
:10112000C069474908404549C8610846406A444982
:101130000840424948620846C06A414908403F4960
:10114000C8629DF80000C007800B9DF80010C1F335
:10115000400140EA01209DF80010C1F3800140EAFF
:1011600041209DF80010C1F3C00140EA816033497D
:101170001431096808433149143108609DF80100B1
:10118000C007800B9DF80110C1F3400140EA012027
:101190009DF80110C1F3800140EA41209DF8011043
:1011A000C1F3C00140EA81602449C9690843234969
:1011B000C8619DF80200C007800B9DF80210C1F3C2
:1011C000400140EA01209DF80210C1F3800140EA8D
:1011D00041209DF80210C1F3C00140EA8160174927
:1011E000496A0843154948629DF80300C007800B0F
:1011F0009DF80310C1F3400140EA01209DF803105F
:10120000C1F3800140EA41209DF80310C1F3C00101
:1012100040EA81600949C96A08430849C86200E098
:1012200000BF00BF00F00EF804480830006840F02E
:101230000400024908310860F8BD000000240040A5
:10124000FFFCFDFB00BF2748006800F004000028F9
:10125000F9D124480838406A23490840214908390F
:1012600048620846C06A204908401E490839C862D9
:101270001E48007800F0010030B10846C06A40F412
:10128000807118480838C1621848007800F00200E0
:1012900038B114480838406A40F480711148083861
:1012A00041621248007800F0040038B10D48083857
:1012B000C06A40F000710B480838C1620B480078E2
:1012C00000F0080038B107480838406A40F0007163
:1012D0000448083841620348006840F004000149AE
:1012E0000860704708240040FFFEFFFD000000205A
:1012F00002480068401E0149086070470400002051
:1013000030B5024600204FF0E0210861501E4861D0
:1013100048170121002804DB0B071C0E184B1C5436
:1013200006E00B071D0E174B00F00F04241F1D5580
:1013300000BF4FF0FF3000280DDB00BF00BF00F002
:101340001F030121994043099B0003F1E023C3F8E7
:10135000001100BF00BF00BF00204FF0E0218861F6
:101360000846006920F0040008610846006940F062
:10137000020008610846006940F00100086130BDC4
:1013800000E400E018ED00E038B520208DF8000002
:101390008DF801008DF8020005240CE004F1300006
:1013A000C0B28DF803006846FFF780FA4FF4FA7078
:1013B00000F004F8641E002CF0DC38BD034908601E
:1013C00000BF024909680029FBD1704704000020D2
:1013D0002DE9F047044615A516A618A70FF26408D4
:1013E0000FF268090FF26C0A052C18D2DFE804F03E
:1013F00003070B0F13002846FFF758FA13E0304697
:10140000FFF754FA0FE03846FFF750FA0BE040467A
:10141000FFF74CFA07E04846FFF748FA03E050466A
:10142000FFF744FA00BF00BFBDE8F0872020555009
:101430002020000020444F574E20000020524947F2
:1014400048540000204C454654200000205055537D
:10145000482000004552524F522100001848C06CED
:1014600040F001001649C8644FF09040C06840F653
:10147000FF4188434FF09041C8600846C06840F67D
:10148000AA0108434FF09041C8600846006820F068
:10149000030008600846006820F00C000860084659
:1014A000006820F0300008600846006820F0C000A6
:1014B00008600846006820F440600860704700003B
:1014C0000010024010B50024FFF717FA4FF47A70AD
:1014D000FFF716FFFFF7C2FF00F07AF8FFF754FF9F
:1014E0000220FFF775FF002010BD00002DE9F05F1E
:1014F00081460F464FF0000BDA46D04600243E46A8
:1015000000E0761C052096FBF0F100FB116000283E
:10151000F7D1361D3046FEF7CDFE054651E00024DA
:1015200003E019F804002855641CBC42F9DD3C4670
:1015300002E020202855641CB442FAD1002413E0B4
:101540002819FFF7B3F94FF0000809E04FF0904079
:10155000006900F0010008B100F036B808F1010898
:1015600018488045F2DB641CB442E9DD002403E046
:1015700020202855A246641C052CF9DD002406E035
:1015800019F8041004EB0A00401C2954641C701E56
:10159000A042F5DA002412E02819FFF787F94FF08E
:1015A000000808E04FF09040006900F0010000B131
:1015B000D2E708F1010803488045F3DB641C052CE1
:1015C000EADDACE7A086010030BCBDE8C09F0000AA
:1015D00070B505A42046FEF79CFEC5B229462046FC
:1015E000FFF784FF70BD0000505245535320425511
:1015F00054544F4E20544F20535441525420544879
:10160000452047414D4500004FF04070E1EE100A83
:10161000704700FE1467001D1447009D009C003FAA
:1016200000FA1400005341980019485A095A005F03
:1016300000FC015F01FC00AF1404005BC018815A7C
:10164000C9005800C005005F004200F5006700EACD
:1016500000AF00BF004600FF00EF00007C1600084E
:101660000000002008000000C401000884160008E3
:101670000800002060060000E001000800000000F3
:041680000000000066
:040000050800018965
:00000001FF
