:020000040800F2
:10000000680600202902000865020008670200084F
:10001000690200086B0200086D0200080000000081
:100020000000000000000000000000006F02000857
:100030007102000800000000730200082D10000883
:1000400077020008770200087702000877020008AC
:10005000770200087702000877020008770200089C
:10006000770200087702000877020008770200088C
:10007000770200087702000877020008770200087C
:10008000770200087702000877020008770200086C
:10009000770200087702000877020008770200085C
:1000A000770200087702000877020008770200084C
:1000B000770200087702000877020008770200083C
:1000C000770200087702000877020008770200082C
:1000D000770200087702000877020008770200081C
:1000E000770200087702000877020008770200080C
:1000F00077020008770200087702000877020008FC
:1001000077020008770200087702000877020008EB
:1001100077020008770200087702000877020008DB
:1001200077020008770200087702000877020008CB
:1001300077020008770200087702000877020008BB
:1001400077020008770200087702000877020008AB
:10015000770200087702000877020008770200089B
:10016000770200087702000877020008770200088B
:1001700077020008770200087702000800000000FC
:10018000770200087702000800F002F800F03CF85F
:100190000AA090E8000C82448344AAF10107DA45E2
:1001A00001D100F031F8AFF2090EBAE80F0013F0F8
:1001B000010F18BFFB1A43F001031847C8110000D4
:1001C000E8110000103A24BF78C878C1FAD8520765
:1001D00024BF30C830C144BF04680C6070470000C1
:1001E0000023002400250026103A28BF78C1FBD840
:1001F000520728BF30C148BF0B6070471FB501F0E0
:1002000097F81FBD10B510BD00F053F81146FFF769
:10021000F5FF01F082F800F071F803B4FFF7F2FF88
:1002200003BC00F079F8000016481749174B9942B3
:100230003CBF50F8042B41F8042BF8D314494FF07D
:1002400000028B4238BF43F8042BFAD3DFF8440096
:10025000016841F470010160BFF34F8FBFF36F8FEE
:100260000D480047FEE7FEE7FEE7FEE7FEE7FEE794
:10027000FEE7FEE7FEE7FEE708480949094A0A4BA0
:1002800070470000A41300080000002008000020B0
:100290006806002088ED00E0890100086800002061
:1002A000680600206802002068020020704770473E
:1002B0007047754600F02CF8AE4605006946534677
:1002C00020F00700854618B020B5FFF7D5FFBDE840
:1002D00020404FF000064FF000074FF000084FF0AD
:1002E000000B21F00701AC46ACE8C009ACE8C0093E
:1002F000ACE8C009ACE8C0098D46704710B50446AB
:10030000AFF300802046BDE81040FFF786BF000035
:10031000004870470800002001491820ABBEFEE7E6
:100320002600020070470000002000BF0B4909684A
:1003300001F004010029F9D1002006E0002207495C
:100340000C3141F82020411CC8B20F28F6DD0349CA
:10035000096841F00401014A116070470824004017
:100360002F48806D00F0805028B92D48806D40F0F6
:1003700080502B4988652A48806D2A48006800F41F
:10038000807060B92748006840F480702549086093
:1003900000BF2448006800F480700028F9D020488D
:1003A0009030006820F005001D49C1F89000084613
:1003B000D0F8900040F48030C1F890000846D0F8A2
:1003C000900020F48030C1F8900007E0144890308D
:1003D000006840F001001249C1F8900010489030C8
:1003E000006800F002000028F0D00D48903000684E
:1003F00020F440700A49C1F890000846D0F89000F7
:1004000040F48070C1F890000846806D20F0805064
:1004100088650846806D40F400708865704700006C
:1004200000100240007000403448006820F0600076
:10043000324908600846006840F0400008600846FD
:10044000006820F01C0008600846006840F00400C6
:1004500008600846006840F008000860081D006851
:1004600020F4E050091D08600846006840F48060F0
:1004700008600846006840F40060086008460068AC
:1004800040F4805008600846006820F07000086062
:100490000846006840F0100008600846006840F018
:1004A000200008600846006840F040000860081F0F
:1004B000006820F08000091F08600846006820F0EE
:1004C000020008600846006820F001000860084645
:1004D000006840F00100086000BF0848083000686C
:1004E00000F001000028F8D000BF04480830006880
:1004F00000F010000028F8D07047000000240040F1
:10050000F0B50C4615460021002600220778342F4E
:1005100053D00FDCA7F12007142F5AD2DFE807F0E1
:100520002359595959435959282A253B5938593E75
:10053000494A4B4C642F1FD008DCA7F13507052F23
:1005400047D2DFE807F03B3C3D3E3F00B02F27D0CD
:1005500004DC6D2F13D06E2F3BD113E0B52F14D0D8
:10056000FF2F36D122E000214CE04AF2DD0149E0C4
:10057000282147E0112145E04FF4734142E04BF25E
:1005800010213FE042F210213CE046F2840139E0C4
:100590004FF4204136E04AF2140133E0C02131E04B
:1005A0004FF46C412EE04FF433412BE04FF6DD71F8
:1005B00028E000BF00BF00BF00BF00BF00BF00BFFA
:1005C00000BF00BF0778303FDFF864C03CF8171069
:1005D00018E007785B2F08DA0778402F05DD0778E9
:1005E000413FDFF850C03CF8171007787B2F08DA3E
:1005F0000778602F05DD0778613FDFF838C03CF8E9
:10060000171000BF00BF0CB141F002010DB141F065
:1006100020010C26002208E041FA06F707F00F0738
:100620009F54371FFEB2571CFAB2042AF4DBF0BD08
:100630006E1300083A13000800B500F007F8FFF742
:100640008FFEFFF7F1FEFFF76FFE00BD5348C06C51
:1006500040F001005149C8640846C06C40F00200F7
:10066000C8640846C06C40F00400C8640846C06C0A
:1006700040F00800C8644FF09040006848490840C6
:100680004FF09041086008460068464908434FF023
:10069000904108600846006A20F07F4008620846E2
:1006A000006A40F03B4008620846406A3E49084004
:1006B0004FF0904148620846406A3C4908434FF079
:1006C000904148623A4800683A4908403849086011
:1006D00008460068384908433549086034482030E6
:1006E000006800F0FF2032492031086008460068A9
:1006F00040F0BB1008602E48406A4FF60F7108406A
:100700002B4948620846406A2C49084328494862F8
:100710002B4800682B4908402949086008460068B2
:100720002949084326490860254820300068C0F35D
:100730000B0023492031086008460068234908431C
:100740001F49203108601E48406A20F00F011C48F4
:100750004162406A40F00B01194841621C48006840
:1007600080B21B490860084600681A4908431849C6
:100770000860174820300068154920310860084695
:10078000006808601248406A002111484162406ACE
:1007900040F0BB310E48416270470000001002403B
:1007A000FF0FC03F00A02A8000F0FF0FBB0B00B07E
:1007B00000040048F0F0F3000A0A08AAB000BBBB2E
:1007C000000800483F00FCFF80AA020000B0BBBB4D
:1007D000000C00480000AAAAF8B505460E461746C8
:1007E0001C466B463A4631462846FFF789FE00BF55
:1007F000FE48006800F004000028F9D1062C7DD2E4
:10080000DFE804F00398FCFBFAF9F8480C300068C4
:10081000F7490840F5490C310860F4480838C069C8
:10082000F3490840F1490839C8610846406AF0496F
:100830000840EE49083948620846C06AEC49084059
:10084000EA490839C8629DF80000C007C00E9DF84B
:100850000010C1F3400140EAC1509DF80010C1F3FF
:10086000800140EA81509DF80010C1F3C00140EAC8
:10087000C100DE490C3109680843DC490C310860CD
:100880009DF80100C007C00E9DF80110C1F34001A2
:1008900040EAC1509DF80110C1F3800140EA815047
:1008A0009DF80110C1F3C00140EAC100CF490839E9
:1008B000C9690843CD490839C8619DF80200C007DD
:1008C000C00E9DF80210C1F3400140EAC1509DF8EE
:1008D0000210C1F3800140EA81509DF80210C1F37B
:1008E000C00140EAC100C1490839496A0843BF490B
:1008F000083948629DF80300C00700E02EE3C00EEF
:100900009DF80310C1F3400140EAC1509DF8031067
:10091000C1F3800140EA81509DF80310C1F3C0018A
:1009200040EAC100B1490839C96A0843AF490839EA
:10093000C86214E3AD480C30006843F2600188439C
:10094000AA490C310860A9480838C06943F260011F
:100950008843A6490839C8610846406A43F26001E5
:100960008843A249083948620846C06A43F26001D8
:1009700088439E490839C8629DF80000C007400EB0
:100980009DF80010C1F3400140EA41309DF800108D
:10099000C1F3800140EA01309DF80010C1F3C001AD
:1009A00040EA411091490C31096808438F490C31E4
:1009B00008609DF80100C007400E9DF80110C1F3CA
:1009C000400140EA41309DF80110C1F3800140EA46
:1009D00001309DF80110C1F3C00140EA4110834984
:1009E0000839C969084381490839C8619DF802007E
:1009F000C007400E03E028E27CE1CAE036E09DF843
:100A00000210C1F3400140EA41309DF80210C1F3E9
:100A1000800140EA01309DF80210C1F3C00140EAB4
:100A2000411072490839496A0843704908394862D7
:100A30009DF80300C007400E9DF80310C1F340016C
:100A400040EA41309DF80310C1F3800140EA0130D3
:100A50009DF80310C1F3C00140EA41106349083911
:100A6000C96A084361490839C86278E25F480C30B6
:100A70000068604908405D490C3108605B480838EF
:100A8000C0695C49084059490839C8610846406A4C
:100A9000584908405549083948620846C06A5549CE
:100AA000084052490839C8629DF80000C007000C90
:100AB0009DF80010C1F3400140EA41709DF800101C
:100AC000C1F3800140EA01709DF80010C1F3C0013C
:100AD00040EA813045490C310968084343490C31EB
:100AE00008609DF80100C007000C9DF80110C1F3DB
:100AF000400140EA41709DF80110C1F3800140EAD5
:100B000001709DF80110C1F3C00140EA81303749FE
:100B10000839C969084335490839C8619DF8020098
:100B2000C007000C9DF80210C1F3400140EA41707B
:100B30009DF80210C1F3800140EA01709DF8021097
:100B4000C1F3C00140EA813028490839496A0843A5
:100B50002649083948629DF80300C007000C9DF83B
:100B60000310C1F3400140EA41709DF80310C1F346
:100B7000800140EA01709DF80310C1F3C00140EA12
:100B800081301A490839C96A084318490839C862C6
:100B9000E5E116480C30006820F0404013490C3164
:100BA000086012480838806920F003010F480838AF
:100BB0008161C06920F040410C480838C161006A79
:100BC00020F00301094808380162406A20F04041E2
:100BD000064808384162806A20F00301034808385B
:100BE0008162C06A20F04041004805E008240040CE
:100BF000E7FF3FFFFF3FFFCF0838C162006B20F0E7
:100C00000301DD4801639DF80000C0079DF8001056
:100C1000C1F3C00140EA8170D74914310968084323
:100C2000D549143108609DF80000C0F380009DF89C
:100C30000010C1F3400140EA4100CF4989690843EF
:100C4000CD4988619DF80100C0079DF80110C1F3EE
:100C5000C00140EA8170C849C9690843C649C861F2
:100C60009DF80100C0F380009DF80110C1F3400120
:100C700040EA4100C049096A0843BF4908629DF83B
:100C80000200C0079DF80210C1F3C00140EA817064
:100C9000B949496A0843B84948629DF80200C0F35F
:100CA00080009DF80210C1F3400140EA4100B249C2
:100CB000896A0843B04988629DF80300C0079DF81F
:100CC0000310C1F3C00140EA8170AB49C96A08430F
:100CD000A949C8629DF80300C0F380009DF8031085
:100CE000C1F3400140EA4100A349096B0843A2490E
:100CF000086334E1A0481430006820F040709E4939
:100D0000143108609C48806920F00C019A48816188
:100D1000C06920F040719848C161006A20F00C0160
:100D200095480162406A20F0407193484162806AB0
:100D300020F00C0190488162C06A20F040718E481A
:100D4000C162006B20F00C018B4801639DF800002C
:100D5000C0F3400040069DF80010C1F3800140EA56
:100D600001608549143109680843834914310860DA
:100D70009DF80000C007000F9DF80010C1F3C001EE
:100D800040EA81007C49896908437B4988619DF874
:100D90000100C0F3400040069DF80110C1F380013E
:100DA00040EA01607449C96908437349C8619DF804
:100DB0000100C007000F9DF80110C1F3C00140EA17
:100DC00081006D49096A08436B4908629DF8020079
:100DD000C0F3400040069DF80210C1F3800140EAD4
:100DE00001606549496A0843634948629DF8020009
:100DF000C007000F9DF80210C1F3C00140EA810056
:100E00005D49896A08435C4988629DF80300C0F324
:100E1000400040069DF80310C1F3800140EA0160E4
:100E20005549C96A08435449C8629DF80300C00780
:100E3000000F9DF80310C1F3C00140EA81004E4944
:100E4000096B08434C49086389E04B48143000683B
:100E50004A4908404849143108604748C069474931
:100E600008404549C8610846406A4449084042492B
:100E700048620846C06A414908403F49C8629DF837
:100E80000000C007800B9DF80010C1F3400140EA4C
:100E900001209DF80010C1F3800140EA41209DF837
:100EA0000010C1F3C00140EA816033491431096880
:100EB00008433149143108609DF80100C007800BD8
:100EC0009DF80110C1F3400140EA01209DF8011096
:100ED000C1F3800140EA41209DF80110C1F3C00137
:100EE00040EA81602449C96908432349C8619DF8E3
:100EF0000200C007800B9DF80210C1F3400140EAD8
:100F000001209DF80210C1F3800140EA41209DF8C4
:100F10000210C1F3C00140EA81601749496A0843E1
:100F2000154948629DF80300C007800B9DF8031027
:100F3000C1F3400140EA01209DF80310C1F3800194
:100F400040EA41209DF80310C1F3C00140EA8160EE
:100F50000949C96A08430849C86200E000BF00BFE8
:100F600000F00EF804480830006840F00400024920
:100F700008310860F8BD000000240040FFFCFDFBC4
:100F800000BF2748006800F004000028F9D1244879
:100F90000838406A23490840214908394862084610
:100FA000C06A204908401E490839C8621E480078B6
:100FB00000F0010030B10846C06A40F48071184862
:100FC0000838C1621848007800F0020038B11448AF
:100FD0000838406A40F4807111480838416212486C
:100FE000007800F0040038B10D480838C06A40F0BD
:100FF00000710B480838C1620B48007800F0080007
:1010000038B107480838406A40F000710448083891
:1010100041620348006840F00400014908607047DD
:1010200008240040FFFEFFFD000000200248006889
:10103000401E0149086070470400002030B5024698
:1010400000204FF0E0210861501E4861481701213F
:10105000002804DB0B071C0E184B1C5406E00B0782
:101060001D0E174B00F00F04241F1D5500BF4FF03D
:10107000FF3000280DDB00BF00BF00F01F0301217F
:10108000994043099B0003F1E023C3F8001100BF1E
:1010900000BF00BF00204FF0E021886108460069D2
:1010A00020F0040008610846006940F00200086171
:1010B0000846006940F00100086130BD00E400E02E
:1010C00018ED00E02DE9F04786B004464EF66020AA
:1010D00094FBF0F100FB1140201A4EF6602190FBCA
:1010E000F1F00A2190FBF1FA4EF6602094FBF0F14A
:1010F00000FB1140201A4EF6602190FBF1F00A210E
:1011000090FBF1F201FB12054EF6602094FBF0F12A
:1011100000FB11404FF47A7194FBF1F201FB124194
:10112000401A4FF47A7190FBF1F00A2190FBF1F62E
:101130004EF6602094FBF0F100FB11404FF47A7101
:1011400094FBF1F201FB1241401A4FF47A7190FBCB
:10115000F1F00A2190FBF1F201FB12074FF47A70D3
:1011600094FBF0F100FB11400A2190FBF1F090FBA1
:10117000F1F84FF47A7094FBF0F100FB11400A2172
:1011800090FBF1F090FBF1F201FB12090AF1300043
:10119000C0B2059005F13000C0B2049006F13000F5
:1011A000C0B2039007F13000C0B2029008F13000E5
:1011B000C0B2019009F13000C0B2009000231A467D
:1011C000194605A8FFF708FB01231A46002104A8C9
:1011D000FFF702FB02230022114603A8FFF7FCFAE7
:1011E00003230022012102A8FFF7F6FA04230022BC
:1011F000114601A8FFF7F0FA0523002211466846C0
:10120000FFF7EAFA06B0BDE8F08700001848C06CA6
:1012100040F001001649C8644FF09040C06840F6A5
:10122000FF4188434FF09041C8600846C06840F6CF
:10123000AA0108434FF09041C8600846006820F0BA
:10124000030008600846006820F00C0008600846AB
:10125000006820F0300008600846006820F0C000F8
:1012600008600846006820F440600860704700008D
:10127000001002400EB5002500260027A846A9460A
:10128000AA46AB460020029001900090002443E063
:101290004FF09040006900F001054FF09040006968
:1012A000C0F340064FF090400069C0F380074FF054
:1012B00090400069C0F3C0084FF090400069C0F34F
:1012C00040192DB1BAF1000F02D14EF6602004444E
:1012D000012E05D1BBF1000F02D142F2107004447F
:1012E000012F03D1029808B904F57A74B8F1010FFF
:1012F00002D1019800B96434B9F1010F02D100980C
:1013000000B90A342046FFF7DDFEAA46B34602972D
:10131000CDF80480CDF80090BAE700BFFFF78CF954
:101320004FF47A70FFF78AFEFFF770FFFFF7A2FF16
:101330004FF04070E1EE100A704700FE1467001D88
:101340001447009D009C003F00FA14000053419890
:101350000019485A095A005F00FC015F01FC00AF08
:101360001404005BC018815AC9005800C005005F12
:10137000004200F5006700EA00AF00BF004600FF32
:1013800000EF0000A4130008000000200800000087
:10139000C4010008AC13000808000020600600002B
:0C13A000E0010008000000000000000058
:040000050800018965
:00000001FF
